:020000042000DA
:100000000000012099020020090300200B030020BA
:100010000D0300200F03002011030020000000004A
:10002000000000000000000000000000130300209A
:100030001503002000000000170300201903002012
:100040001B0300201D0300201F03002021030020AC
:10005000230300202503002027030020290300207C
:100060002B0300202D030020611400208D1400209C
:10007000330300203503002037030020390300201C
:100080003B0300203D0300203F03002041030020EC
:1000900043030020450300204703002049030020BC
:1000A0004B030020000000000000000000000000E2
:1000B00000000000000000000000000041060020D9
:1000C0004F0300205103002053030020550300205C
:1000D00057030020590300205B0300205D0300202C
:1000E0005F030020610300206303002065030020FC
:1000F00067030020690300206B0300206D030020CC
:100100006F0300207103002073030020750300209B
:1001100077030020790300207B0300207D0300206B
:100120007F0300208103002083030020850300203B
:1001300087030020890300208B0300208D0300200B
:100140008F030020910300209303002095030020DB
:1001500097030020990300209B0300209D030020AB
:100160009F030020A1030020A3030020A50300207B
:10017000A7030020A9030020AB030020AD0300204B
:10018000AF030020B1030020B3030020B50300201B
:10019000B7030020B9030020BB030020BD030020EB
:1001A000BF030020C1030020C3030020C5030020BB
:1001B000C7030020C9030020CB030020CD0300208B
:1001C000CF030020D1030020D3030020D50300205B
:1001D000D7030020D9030020DB030020DD0300202B
:1001E000DF030020E1030020E3030020E5030020FB
:1001F000E7030020E9030020EB030020ED030020CB
:10020000EF030020F1030020F3030020F50300209A
:10021000F7030020F9030020FB030020FD0300206A
:10022000FF03002001040020030400200504002037
:1002300007040020090400200B0400200D04002006
:100240000F040020110400201304002015040020D6
:1002500017040020190400201B0400201D040020A6
:100260001F04002021040020230400202504002076
:1002700027040020290400202B0400202D04002046
:100280002F04002031040020330400203504002016
:100290003704002039040020684880476848002857
:1002A0000BD168486849694A884206D091421CBF10
:1002B00050F8043B41F8043BF8D165486549664A6B
:1002C000884206D091421CBF50F8043B41F8043BE1
:1002D000F8D162486249634A914218BF41F8040B61
:1002E000FAD1000000000000000000000000000043
:1002F000DFF874010FF2030E00474FF000004FF0DB
:100300000001DFF868F1FEE7FEE7FEE7FEE7FEE743
:10031000FEE7FEE7FEE7FEE7FEE7FEE7FEE7FEE7B5
:10032000FEE7FEE7FEE7FEE7FEE7FEE7FEE7FEE7A5
:10033000FEE7FEE7FEE7FEE7FEE7FEE7FEE7FEE795
:10034000FEE7FEE7FEE7FEE7FEE7FEE7FEE7FEE785
:10035000FEE7FEE7FEE7FEE7FEE7FEE7FEE7FEE775
:10036000FEE7FEE7FEE7FEE7FEE7FEE7FEE7FEE765
:10037000FEE7FEE7FEE7FEE7FEE7FEE7FEE7FEE755
:10038000FEE7FEE7FEE7FEE7FEE7FEE7FEE7FEE745
:10039000FEE7FEE7FEE7FEE7FEE7FEE7FEE7FEE735
:1003A000FEE7FEE7FEE7FEE7FEE7FEE7FEE7FEE725
:1003B000FEE7FEE7FEE7FEE7FEE7FEE7FEE7FEE715
:1003C000FEE7FEE7FEE7FEE7FEE7FEE7FEE7FEE705
:1003D000FEE7FEE7FEE7FEE7FEE7FEE7FEE7FEE7F5
:1003E000FEE7FEE7FEE7FEE7FEE7FEE7FEE7FEE7E5
:1003F000FEE7FEE7FEE7FEE7FEE7FEE7FEE7FEE7D5
:10040000FEE7FEE7FEE7FEE7FEE7FEE7FEE7FEE7C4
:10041000FEE7FEE7FEE7FEE7FEE7FEE7FEE7FEE7B4
:10042000FEE7FEE7FEE7FEE7FEE7FEE7FEE7FEE7A4
:10043000FEE7FEE7FEE7FEE7FEE70000B914002056
:10044000000000000000002000000020987E002036
:10045000987E0020987E0020B883002000000000D5
:10046000B883002090840020E11F002001090020B3
:1004700048F2B833C2F200031A780AB901201870A2
:10048000704700BF47F69860C2F2000008B50368E5
:100490002BB140F20003C0F2000303B1984708BD3E
:1004A00080B483B000AF0346FB804EF20013CEF25F
:1004B0000003B7F906204FEA5212F98801F01F0134
:1004C0004FF0010000FA01F143F8221007F10C0788
:1004D000BD4680BC704700BF80B483B000AF034608
:1004E000FB804EF20013CEF20003B7F906204FEA6C
:1004F0005212F98801F01F014FF0010000FA01F1DA
:1005000002F1600243F8221007F10C07BD4680BCDF
:10051000704700BFB0B584B000AFC7E900014FF02D
:100520000003FB60D7E900014FF000024FF0000329
:1005300001F00EFD0346002B02D04FF00103FB60DB
:10054000FB68002B0AD03B683B607B6883F000436C
:100550007B604FF0FF3000F06BFB03E04FF00100D9
:1005600000F066FB4FF000031C46D7E900014FF096
:1005700000024FF07F5301F0EBFC0346002B02D04A
:100580004FF001031C46E3B2002B03D04FF00000F4
:1005900000F04EFB48F23043C2F200031B681846DD
:1005A00001F0EEF904460D464FF000004FF07E5189
:1005B00001F5E001D7E9002301F0A4F802460B465B
:1005C0002046294601F052FA02460B4610461946CB
:1005D00001F0E6FC0346BB604FF000031C46D7E980
:1005E00000014FF000024FF07E5303F5E00301F0ED
:1005F000B9FC0346002B02D04FF001031C46E3B2C6
:10060000002B19D04FF000031C46D7E900014FF032
:1006100000024FF03F4303F5700301F0ADFC0346C9
:10062000002B02D04FF001031C46E3B2002B03D095
:10063000BB68184600F0AAFA07F11007BD46B0BD26
:10064000684620F007018D4681B583B000AF00F009
:10065000BFFA03467B6048F22843C2F200031B68DE
:1006600047F63430C2F20000194601F0C7FF7B683C
:1006700003F00103DBB2002B16D048F22843C2F28C
:1006800000031B68B3F57A7F0ED94FF000004FF0DE
:100690007E5101F5C001FFF73DFF48F22843C2F249
:1006A00000034FF000021A6048F22843C2F2000330
:1006B0001B6803F1010248F22843C2F200031A60EA
:1006C0004FF01F00FFF708FF07F10C07BD46BDE81C
:1006D00081408546704700BF80B500AF48F2204397
:1006E000C2F200031B68DB79C3F30013DBB2002BFB
:1006F00005D047F64030C2F2000001F07FFF48F21B
:100700002043C2F200031B68DB79C3F3C003DBB2F2
:10071000002B05D047F64830C2F2000001F06EFF12
:1007200048F22043C2F200031B68DB79C3F3800365
:10073000DBB2002B05D047F64C30C2F2000001F0CE
:100740005DFF48F22043C2F200031B68DB79C3F36C
:100750004003DBB2002B05D047F65030C2F2000058
:1007600001F04CFF48F22043C2F200031B68DB7922
:10077000C3F30003DBB2002B05D047F65430C2F2BE
:10078000000001F03BFF48F22043C2F200031B6867
:100790009B79C3F38013DBB2002B05D047F65830AA
:1007A000C2F2000001F02AFF48F22043C2F2000327
:1007B0001B689B79C3F34013DBB2002B05D047F6CF
:1007C0005C30C2F2000001F019FF48F22043C2F28F
:1007D00000031B689B79C3F30013DBB2002B05D029
:1007E00047F66030C2F2000001F008FF48F22043F3
:1007F000C2F200031B689B79C3F3C003DBB2002B7A
:1008000005D047F66430C2F2000001F0F7FE48F26E
:100810002043C2F200031B689B79C3F38003DBB261
:10082000002B05D047F66830C2F2000001F0E6FE6A
:1008300048F22043C2F200031B689B79C3F34003D4
:10084000DBB2002B05D047F67030C2F2000001F099
:10085000D5FE48F22043C2F200031B689B79C3F324
:100860000003DBB2002B05D047F67830C2F200005F
:1008700001F0C4FE47F68030C2F2000001F0BEFE77
:1008800048F22043C2F200031B685B791A4648F223
:100890002043C2F200031B681B7947F68430C2F282
:1008A000000011461A4601F0A9FE48F22043C2F2A8
:1008B00000031B68DB781A4648F22043C2F20003AB
:1008C0001B689B7847F69C30C2F2000011461A461E
:1008D00001F094FE48F22043C2F200031B685B78EB
:1008E0001A4648F22043C2F200031B681B7847F601
:1008F000B430C2F2000011461A4601F07FFE80BDFE
:1009000080B588B000AF4FF000037B604FF0080067
:1009100001F096FB0346BB60BA6848F22043C2F27E
:1009200000031A6048F23443C2F2000340F640521A
:10093000C0F203021A6048F23043C2F2000348F2E8
:100940008042C0F21E021A6048F22443C2F2000341
:100950004FF000021A6048F22443C2F200031A6802
:1009600048F22C43C2F200031A6000F0C1F848F2CA
:100970003043C2F200031B68184600F0D1F848F279
:100980003443C2F200031B68184600F0FFF84FF032
:1009900000004FF07E5101F5A001FFF7BBFD4FF0C5
:1009A000010000F09DF900F001F900F0DDF800F021
:1009B000C9F800F019F900F029F94FF01F00FFF70E
:1009C0006FFD00F09BF847F6E030C2F2000001F046
:1009D00083FE48F22843C2F200034FF000021A607F
:1009E0004FF00103FB604FF000024FF00003C7E936
:1009F00004234FF00103FB6140F20003C4F205033E
:100A00004FF000021A6040F20003C4F205031B68B5
:100A10001A46BB681A60BB6803F1040240F2040383
:100A2000C4F205031B681360FFF756FE48F220432B
:100A3000C2F200031B68DB79C3F30003DBB2002BB7
:100A400008D04FF000004FF07E5101F5C001FFF7D4
:100A500061FD19E048F22043C2F200031B68DB7914
:100A6000C3F34003DBB2002B08D04FF000004FF07F
:100A70003F4101F56001FFF74DFD05E04FF000003B
:100A80004FF00001FFF746FD48F22043C2F2000399
:100A90001B689B79C3F34003DBB2002B04D04FF0FB
:100AA000010000F01DF913E048F22043C2F20003F8
:100AB0001B689B79C3F30003DBB2002B04D04FF01B
:100AC000FF3000F00DF903E04FF0000000F008F9EE
:100AD0004FF000037B6003E07B6803F101037B6060
:100AE0007A6844F23F23C0F20F039A42F4DD8AE7AA
:100AF00080B400AFBD4680BC704700BF80B400AF7B
:100B000040F20013C4F2050340F20012C4F20502E1
:100B1000926842F001029A60BD4680BC704700BFF7
:100B200080B485B000AF786040F20013C4F20503D2
:100B3000FB60FB687A681A6007F11407BD4680BC49
:100B4000704700BF80B400AF40F20013C4F2050349
:100B500040F20012C4F20502926842F00E029A605E
:100B6000BD4680BC704700BF80B400AF40F20013A8
:100B7000C4F2050340F20012C4F20502926842F08A
:100B800006029A60BD4680BC704700BF80B483B047
:100B900000AF786040F20013C4F205037A68DA60AF
:100BA00007F10C07BD4680BC704700BF80B400AFA2
:100BB00040F20013C4F2050340F20012C4F2050231
:100BC000926842F00A029A60BD4680BC704700BF3E
:100BD00080B400AF40F20013C4F205031B6918464D
:100BE000BD4680BC704700BF80B400AF40F2001328
:100BF000C4F2050340F20012C4F20502926842F00A
:100C000010029A60BD4680BC704700BF80B400AF40
:100C100040F20013C4F2050340F20012C4F20502D0
:100C2000926842F020029A60BD4680BC704700BFC7
:100C300080B582B000AF78607B68002B18DA40F294
:100C40000013C4F2050340F20012C4F20502D26997
:100C500002F00C02DA6140F20013C4F2050340F224
:100C60000012C4F20502D26942F00102DA6127E003
:100C70007B68002B0CD140F20013C4F2050340F254
:100C80000012C4F20502D26902F00C02DA6117E028
:100C900040F20013C4F2050340F20012C4F2050250
:100CA000D26902F00C02DA6140F20013C4F20503CB
:100CB00040F20012C4F20502D26942F00202DA6187
:100CC00040F20013C4F20503DB6947F6E430C2F2D8
:100CD0000000194601F092FC07F10807BD4680BDEF
:100CE00080B582B000AF78607B68002B18DA40F2E4
:100CF0000013C4F2050340F20012C4F20502D269E7
:100D000002F00302DA6140F20013C4F2050340F27C
:100D10000012C4F20502D26942F00402DA6127E04F
:100D20007B68002B0CD140F20013C4F2050340F2A3
:100D30000012C4F20502D26902F00302DA6117E080
:100D400040F20013C4F2050340F20012C4F205029F
:100D5000D26902F00302DA6140F20013C4F2050323
:100D600040F20012C4F20502D26942F00802DA61D0
:100D700040F20013C4F20503DB6947F6E430C2F227
:100D80000000194601F03AFC07F10807BD4680BD96
:100D900080B483B000AF78604FF0FF33184607F19E
:100DA0000C07BD4680BC704780B483B000AF78604C
:100DB000FEE700BF80B483B000AF786039603B6865
:100DC0004FF400525A604FF00003184607F10C0729
:100DD000BD4680BC704700BF80B483B000AF786070
:100DE0004FF00103184607F10C07BD4680BC704761
:100DF00080B485B000AFF860B9607A604FF000034E
:100E0000184607F11407BD4680BC704780B485B012
:100E100000AFF860B9607A604FF00003184607F140
:100E20001407BD4680BC704780B584B000AFF86041
:100E3000B9607A603B6048F2BC33C2F200031B68C1
:100E4000002B10D148F26040C2F200004FF4614123
:100E50004FF0030200F07EF848F2BC33C2F2000308
:100E60004FF001021A603B6848F26040C2F2000095
:100E700079681A4600F070F93B68184607F11007C8
:100E8000BD4680BD80B584B000AF786048F2C03305
:100E9000C2F200031B68002B08D148F2C033C2F233
:100EA000000348F29042C2F200021A6048F2C033D6
:100EB000C2F200031B68BB60EFF30883FB6048F2DB
:100EC000C033C2F200031A687B681A44FB689A4276
:100ED0000FD94FF000004FF0010147F6F432C2F293
:100EE00000024FF01903FFF79FFF4FF00100FFF7DB
:100EF0005BFF48F2C033C2F200031A687B681A44F1
:100F000048F2C033C2F200031A60BB68184607F10A
:100F10001007BD4680BD00BF80B483B000AF03465C
:100F2000FB804EF20013CEF20003B7F906204FEA21
:100F30005212F98801F01F014FF0010000FA01F18F
:100F400002F1600243F8221007F10C07BD4680BC95
:100F5000704700BF80B588B000AFF860B960134635
:100F6000FB714FF00103FB824FF00003BB61FA6895
:100F700048F26043C2F200039A4207D0FA6848F28E
:100F80003843C2F200039A4200D000BEBB68002B77
:100F900000D100BE00F096FAFA6848F26043C2F24F
:100FA00000039A422ED1FB684FF080421A60FB6822
:100FB0004FF084425A60FB684FF00A021A8147F6EC
:100FC000A463C2F200031B68BB6142F20003CEF2CD
:100FD000040342F20002CEF20402126B42F08002DD
:100FE0001A634FF00A00FFF797FF42F20003CEF2B8
:100FF000040342F20002CEF20402126B22F08002DD
:101000001A6331E0FA6840F20003C4F2010313608E
:10101000FA6840F20003C4F220235360FB684FF0EB
:101020000B021A8147F6A863C2F200031B68BB617A
:1010300042F20003CEF2040342F20002CEF20402B6
:10104000126B42F480721A634FF00B00FFF764FFDB
:1010500042F20003CEF2040342F20002CEF2040296
:10106000126B22F480721A63FB681B684FF0000257
:101070001A71BB68002B21D0BA69BB68B2FBF3F3CD
:10108000FB61FB6903F00803002B06D0FB694FEA04
:10109000131303F10103FB6103E0FB694FEA131330
:1010A000FB61FA694FF6FF739A4200D900BEFA69F4
:1010B0004FF6FF739A4201D8FB69FB82FB685B68BD
:1010C0004FF00102C3F89C21FB681B68FA8A4FEAC3
:1010D000122292B2D2B21A71FB681B68FA8AD2B29B
:1010E0001A70FB685B684FF00002C3F89C21FB6834
:1010F0001B68FA791A73FB681B684FF00E021A72AC
:10110000FB685B684FF00002C3F81022FB684FF0E9
:1011100000021A61FB684FF00002DA60FB684FF0D2
:1011200000025A61FB684FF00002DA61FA6841F28E
:101130005933C2F200031362FB684FF000029A6158
:10114000FB684FF000025A62FB684FF000029A728F
:1011500007F12007BD4680BD80B489B000AFF860BC
:10116000B9607A604FF000033B61FA6848F260436F
:10117000C2F200039A4207D0FA6848F23843C2F23A
:1011800000039A4200D000BEBB68002B00D100BE15
:101190007B68002B00D100BEFA6848F26043C2F2BF
:1011A00000039A4206D0FA6848F23843C2F20003BC
:1011B0009A423DD1BB68002B3AD07B68002B37D0D8
:1011C000FB681B681B7DFB76FB689A7AFB7E42EA14
:1011D0000303DAB2FB689A72FB7E03F02003002B54
:1011E00023D04FF01003FB617B680F2B01D87B6885
:1011F000FB614FF000037B610EE0FB681B68B96880
:101200003A690A4412781A703B6903F101033B61A1
:101210007B6903F101037B617A69FB699A42ECD334
:101220007A687B69C3EB02037B607B68002BC7D1C4
:1012300007F12407BD4680BC704700BF80B584B06D
:1012400000AF78607A6848F26043C2F200039A42C5
:1012500007D07A6848F23843C2F200039A4200D0BD
:1012600000BE7A6848F26043C2F200039A4206D098
:101270007A6848F23843C2F200039A4267D17B6829
:101280001B681B7ADBB203F00F03FB73FB7B0C2B99
:1012900054D801A252F823F0CD1200203D130020B3
:1012A000E91200203D130020051300203D1300200B
:1012B000211300203D1300203D1300203D1300208A
:1012C0003D1300203D130020051300207B685B6A5E
:1012D000002B00D100BE7B685B6A002B30D07B689E
:1012E0005B6A7868984732E07B681B6A002B00D104
:1012F00000BE7B681B6A002B24D07B681B6A786861
:10130000984724E07B68DB69002B00D100BE7B6836
:10131000DB69002B18D07B68DB697868984716E09A
:101320007B689B69002B00D100BE7B689B69002B0A
:101330000CD07B689B697868984708E000BE06E09F
:1013400000BF04E000BF02E000BF00E000BF07F103
:101350001007BD4680BD00BF80B487B000AF786085
:101360007A6848F26043C2F200039A4207D07A6872
:1013700048F23843C2F200039A4200D000BE7B68B4
:10138000DB68002B00D100BE7B681B69002B00D1FD
:1013900000BE7A6848F26043C2F200039A4206D067
:1013A0007A6848F23843C2F200039A4252D17B680D
:1013B000DB68002B4ED07B681B69002B4AD07B6812
:1013C0001B681B7DFB727B689A7AFB7A42EA0303F7
:1013D000DAB27B689A72FB7A03F02003002B29D0E3
:1013E0004FF010033B617B681A697B685B69C3EB54
:1013F00002037B617B690F2B01D87B693B614FF056
:101400000003FB6012E07B681B687A68D1687A6829
:1014100052690A4412781A707B685B6903F1010211
:101420007B685A61FB6803F10103FB60FA683B6962
:101430009A42E8D37B685A697B681B699A4209D152
:101440007B684FF000021A617B685B684FF0000216
:10145000C3F8842007F11C07BD4680BC704700BF5D
:10146000684620F007018D4689B500AF48F260401C
:10147000C2F20000FFF7E2FE4FF00A00FFF74CFD5A
:10148000BD46BDE889408546704700BF684620F0EC
:1014900007018D4689B500AF48F23840C2F200001E
:1014A000FFF7CCFE4FF00B00FFF736FDBD46BDE861
:1014B00089408546704700BF80B400AFBD4680BC00
:1014C000704700BF80B58AB000AF47F61043C2F244
:1014D0000003BC460FCB8CE80F0042F20003CEF2B3
:1014E00004039B6C4FEA930303F003034FEA830367
:1014F00007F12802134453F8283C3B6142F20003F1
:10150000CEF204039B6C4FEA131303F003034FEA7C
:10151000830307F12802134453F8283C7B6142F20D
:101520000003CEF204039B6C4FEA931303F0030312
:101530004FEA830307F12802134453F8283CBB61A8
:1015400042F20003CEF20403DB6C4FEA132303F0F4
:101550001F033B6242F20003CEF20403DB6C4FEA4E
:10156000533303F001037B623B6A03F10103FB6128
:101570007B6A002B03D0FB694FEA4303FB6100F059
:1015800049F8024647F6A063C2F200031A6047F624
:10159000A063C2F200031A683B69B2FBF3F247F69C
:1015A000A463C2F200031A6047F6A063C2F200030C
:1015B0001A687B69B2FBF3F247F6A863C2F2000334
:1015C0001A6047F6A063C2F200031A68BB69B2FB57
:1015D000F3F247F6AC63C2F200031A6047F6A06369
:1015E000C2F200031A68FB69B2FBF3F247F6B0637C
:1015F000C2F200031A6047F6A063C2F200031A6841
:1016000047F69C63C2F200031A6007F12807BD4643
:1016100080BD00BF80B48BB000AF4FF000037B6093
:1016200040F61C03C6F20803BB6040F23023C6F24A
:101630000803FB60FB681B6823F070433B613A6959
:1016400041F2CF13C0F2A1539A4208D14EF62C7347
:10165000C6F201037B617B691B687B603DE0BB6870
:101660001A6844F24133C4F654439A4235D140F6E5
:101670004003C6F20803BB61BB691B68FB61FB69E1
:1016800023F07F43FB61FA6940F20033C0F20103AB
:101690009A4222D9FA694FF6FF73C0F201039A42C7
:1016A00008D841F22C63C6F208033B623B6A1B6810
:1016B0007B6012E0FA694FF6FF73C0F202039A42B0
:1016C00008D841F6AC63C6F208037B627B6A1B68EC
:1016D0007B6002E04FF000037B607B68002B05D14C
:1016E00000BE47F64003C0F27D137B607B6818465E
:1016F00007F12C07BD4680BC704700BF81F0004158
:1017000002E000BF83F0004330B54FEA41044FEAE6
:10171000430594EA050F08BF90EA020F1FBF54EA81
:10172000000C55EA020C7FEA645C7FEA655C00F01D
:10173000E2804FEA5454D4EB5555B8BF6D420CDDEE
:101740002C4480EA020281EA030382EA000083EA71
:10175000010180EA020281EA0303362D88BF30BD11
:1017600011F0004F4FEA01314FF4801C4CEA113167
:1017700002D0404261EB410113F0004F4FEA0333C6
:101780004CEA133302D0524263EB430394EA050F51
:1017900000F0A780A4F10104D5F1200E0DDB02FAC0
:1017A0000EFC22FA05F2801841F1000103FA0EF254
:1017B000801843FA05F359410EE0A5F120050EF11A
:1017C000200E012A03FA0EFC28BF4CF0020C43FA4B
:1017D00005F3C01851EBE37101F0004507D54FF058
:1017E000000EDCF1000C7EEB00006EEB0101B1F5A8
:1017F000801F1BD3B1F5001F0CD349085FEA3000EE
:101800004FEA3C0C04F101044FEA445212F5800FF8
:1018100080F09A80BCF1004F08BF5FEA500C50F195
:10182000000041EB045141EA050130BD5FEA4C0C78
:10183000404141EB010111F4801FA4F10104E9D101
:1018400091F0000F04BF01460020B1FA81F308BFF8
:101850002033A3F10B03B3F120020CDA0C3208DDC4
:1018600002F1140CC2F10C0201FA0CF021FA02F19F
:101870000CE002F11402D8BFC2F1200C01FA02F10F
:1018800020FA0CFCDCBF41EA0C019040E41AA2BF34
:1018900001EB0451294330BD6FEA04041F3C1CDAFC
:1018A0000C340EDC04F11404C4F1200220FA04F01C
:1018B00001FA02F340EA030021FA04F345EA0301C6
:1018C00030BDC4F10C04C4F1200220FA02F001FA88
:1018D00004F340EA0300294630BD21FA04F029460A
:1018E00030BD94F0000F83F4801306BF81F48011A3
:1018F0000134013D4EE77FEA645C18BF7FEA655C16
:1019000029D094EA050F08BF90EA020F05D054EAE7
:10191000000C04BF1946104630BD91EA030F1EBFEC
:101920000021002030BD5FEA545C05D140004941F0
:1019300028BF41F0004130BD14F580043CBF01F5E3
:10194000801130BD01F0004545F0FE4141F47001C9
:101950004FF0000030BD7FEA645C1ABF19461046A4
:101960007FEA655C1CBF0B46024650EA013406BFA5
:1019700052EA033591EA030F41F4002130BD00BF64
:1019800090F0000F04BF0021704730B54FF4806421
:1019900004F132044FF000054FF0000150E700BFA2
:1019A00090F0000F04BF0021704730B54FF4806401
:1019B00004F1320410F0004548BF40424FF00001EE
:1019C0003EE700BF42004FEAE2014FEA31014FEA31
:1019D00002701FBF12F07F4393F07F4F81F0605180
:1019E000704792F0000F14BF93F07F4F704730B5EF
:1019F0004FF4607401F0004521F0004120E700BF82
:101A000050EA010208BF704730B54FF000050AE008
:101A100050EA010208BF704730B511F0004502D509
:101A2000404261EB41014FF4806404F132045FEA0B
:101A3000915C3FF4DCAE4FF003025FEADC0C18BFB0
:101A400003325FEADC0C18BF033202EBDC02C2F1A6
:101A5000200300FA03FC20FA02F001FA03FE40EA38
:101A60000E0021FA02F11444C1E600BF70B54FF038
:101A7000FF0C4CF4E06C1CEA11541DBF1CEA13551A
:101A800094EA0C0F95EA0C0F00F0DEF82C4481EA82
:101A9000030621EA4C5123EA4C5350EA013518BFA2
:101AA00052EA033541F4801143F4801338D0A0FB8F
:101AB00002CE4FF00005E1FB02E506F00042E0FB3C
:101AC00003E54FF00006E1FB03569CF0000F18BF42
:101AD0004EF0010EA4F1FF04B6F5007F64F54074EA
:101AE00004D25FEA4E0E6D4146EB060642EAC6217D
:101AF00041EA55514FEAC52040EA5E504FEACE2EEA
:101B0000B4F1FD0C88BFBCF5E06F1ED8BEF1004FEC
:101B100008BF5FEA500E50F1000041EB045170BD68
:101B200006F0004646EA010140EA020081EA0301AC
:101B3000B4EB5C04C2BFD4EB0C0541EA045170BDA8
:101B400041F480114FF0000E013C00F3AB8014F122
:101B5000360FDEBF002001F0004170BDC4F100046B
:101B6000203C35DA0C341BDC04F11404C4F12005EC
:101B700000FA05F320FA04F001FA05F240EA020047
:101B800001F0004221F0004110EBD37021FA04F67D
:101B900042EB06015EEA430E08BF20EAD37070BD37
:101BA000C4F10C04C4F1200500FA04F320FA05F096
:101BB00001FA04F240EA020001F0004110EBD37098
:101BC00041F100015EEA430E08BF20EAD37070BD08
:101BD000C4F1200500FA05F24EEA020E20FA04F3E1
:101BE00001FA05F243EA020321FA04F001F0004190
:101BF00021FA04F220EA020000EBD3705EEA430E01
:101C000008BF20EAD37070BD94F0000F0FD101F02F
:101C10000046400041EB010111F4801F08BF013C68
:101C2000F7D041EA060195F0000F18BF704703F0A6
:101C30000046520043EB030313F4801F08BF013D2D
:101C4000F7D043EA0603704794EA0C0F0CEA1355E9
:101C500018BF95EA0C0F0CD050EA410618BF52EAA3
:101C60004306D1D181EA030101F000414FF00000A9
:101C700070BD50EA410606BF1046194652EA4306B7
:101C800019D094EA0C0F02D150EA013613D195EA2B
:101C90000C0F05D152EA03361CBF104619460AD173
:101CA00081EA030101F0004141F0FE4141F470017D
:101CB0004FF0000070BD41F0FE4141F4780170BD6D
:101CC00070B54FF0FF0C4CF4E06C1CEA11541DBFD2
:101CD0001CEA135594EA0C0F95EA0C0F00F0A7F8D4
:101CE000A4EB050481EA030E52EA03354FEA013101
:101CF00000F088804FEA03334FF0805545EA131314
:101D000043EA12634FEA022245EA111545EA1065DB
:101D10004FEA00260EF000419D4208BF964244F172
:101D2000FD0404F5407402D25B084FEA3202B61A91
:101D300065EB03055B084FEA32024FF480104FF465
:101D4000002CB6EB020E75EB030E22BFB61A7546D9
:101D500040EA0C005B084FEA3202B6EB020E75EB6C
:101D6000030E22BFB61A754640EA5C005B084FEAD4
:101D70003202B6EB020E75EB030E22BFB61A7546A1
:101D800040EA9C005B084FEA3202B6EB020E75EBAC
:101D9000030E22BFB61A754640EADC0055EA060E6D
:101DA00018D04FEA051545EA16754FEA06164FEAB0
:101DB000C30343EA52734FEAC2025FEA1C1CC0D15C
:101DC00011F4801F0BD141EA00014FF000004FF0E9
:101DD000004CB6E711F4801F04BF01430020B4F1AA
:101DE000FD0C88BFBCF5E06F3FF6AFAEB5EB030C62
:101DF00004BFB6EB020C5FEA500C50F1000041EB5F
:101E0000045170BD0EF0004E4EEA113114EB5C042B
:101E1000C2BFD4EB0C0541EA045170BD41F48011FE
:101E20004FF0000E013C90E645EA060E8DE60CEA06
:101E3000135594EA0C0F08BF95EA0C0F3FF43BAF23
:101E400094EA0C0F0AD150EA01347FF434AF95EADA
:101E50000C0F7FF425AF104619462CE795EA0C0FBE
:101E600006D152EA03353FF4FDAE1046194622E78B
:101E700050EA410618BF52EA43067FF4C5AE50EA65
:101E800041047FF40DAF52EA43057FF4EBAE12E755
:101E90004FF0FF3C06E000BF4FF0010C02E000BF36
:101EA0004FF0010C4DF804CD4FEA410C7FEA6C5C19
:101EB0004FEA430C18BF7FEA6C5C1BD001B050EABC
:101EC000410C0CBF52EA430C91EA030F02BF90EAA7
:101ED000020F0020704710F1000F91EA030F58BF66
:101EE000994208BF90422CBFD8176FEAE37040F0C8
:101EF000010070474FEA410C7FEA6C5C02D150EA66
:101F0000013C07D14FEA430C7FEA6C5CD6D152EA20
:101F1000033CD3D05DF8040B704700BF84461046E5
:101F200062468C461946634600E000BF01B5FFF7E4
:101F3000B7FF002848BF10F1000F01BD4DF808EDB4
:101F4000FFF7F4FF0CBF012000205DF808FB00BF85
:101F50004DF808EDFFF7EAFF34BF012000205DF8DF
:101F600008FB00BF4DF808EDFFF7E0FF94BF01202C
:101F700000205DF808FB00BF4DF808EDFFF7CEFF2D
:101F800094BF012000205DF808FB00BF4DF808ED6C
:101F9000FFF7C4FF34BF012000205DF808FB00BF3D
:101FA0004A0011D212F5001211D20DD56FF47873D8
:101FB000B3EB62520ED44FEAC12343F0004343EA2D
:101FC000505323FA02F070474FF00000704750EA78
:101FD000013002D14FF0FF3070474FF000007047E2
:101FE00070B547F6886647F68865C2F20006C2F209
:101FF0000005761BB61006D0002455F824300134B5
:102000009847A642F9D847F6886547F68C66C2F22B
:102010000005C2F20006761B05F02AFFB61006D0B6
:10202000002455F8243001349847A642F9D870BDF1
:1020300047F6B4630146C2F20003186803F08CBA95
:1020400047F6B4630146C2F20003186800F000B816
:102050002DE9F04F01F10B04162C83B006462FD862
:10206000002310248C422CBF194643F001010029A3
:1020700030D1304600F0BEFAB4F5FC7F2ED24FEAE4
:10208000D40E47F6A875C2F2000505EBCE02D36860
:10209000934200F006825A6803F10805D968304679
:1020A00022F0030C9A6863445C688A6044F001047F
:1020B000D1605C6000F0A0FA284603B0BDE8F08F64
:1020C00024F00704E30F8C422CBF194643F00101B2
:1020D0000029CED00C2300253360EDE75FEA542EB3
:1020E00004BF4FEAD40E4FEACE0040F0908047F68E
:1020F000A875C2F200052818C368984206D10DE001
:10210000002A80F26F81DB68984207D0596821F07D
:1021100003010A1B0F2AF3DD0EF1FF3E0EF1010E43
:1021200047F6A877C2F2000707F108018B689942C9
:1021300008BF7A6826D05A6822F0030CC4EB0C0260
:102140000F2A00F39481002AC960896080F2998087
:10215000BCF5007F80F065814FEADC0C4FF0010A8E
:102160007A6807EBCC004FEAAC0C0AFA0CFCD8609A
:10217000D0F808804CEA02027A60C3F80880C8F8F8
:102180000C3083604FF0010C4FEAAE030CFA03FCF5
:10219000944500F2828012EA0C0F08D12EF0030E53
:1021A0004FEA4C0C0EF1040E12EA0C0FF8D007EBBC
:1021B000CE09F246C846D8F80C30984507D168E1F8
:1021C000002A80F27881DB68984500F062815868C7
:1021D00020F00300021B0F2AF2DD1D461F19D3F861
:1021E0000CC044F0010E55F8084F3046BA5042F08A
:1021F0000102C3F804E0CCF80840C4F80CC08F60BA
:10220000CF607A60B960F96000F0F6F954E7BEF18A
:10221000040F9EBF4FEA941E0EF1380E4FEACE0017
:102220007FF665AFBEF1140F9CBF0EF15B0E4FEA57
:10223000CE007FF65CAFBEF1540F9EBF4FEA143E56
:102240000EF16E0E4FEACE007FF651AFBEF5AA7FBB
:102250009EBF4FEAD43E0EF1770E4FEACE007FF6D6
:1022600046AF40F254539E4595BF4FEA944E4FF40B
:102270007C700EF17C0E4FF07E0E98BF4FEACE00C0
:1022800035E703EB0C0203F108053046536843F0D1
:102290000103536000F0B0F90EE7D7F80880D8F8D2
:1022A000043023F00309C4EB09024C4594BF00231A
:1022B00001230F2AD8BF43F00103002B00F0A180B7
:1022C00048F2C43BD5F80824C2F2000BDBF800301A
:1022D00010331B19B2F1FF3F06D003F57E631F33A5
:1022E00023F47E6323F01F0319463046019300F068
:1022F000FBF9019BB0F1FF3F824600F0F48008EB50
:102300000901814200F2EC80DBF804209A18514563
:10231000CBF8042000F04581D5F8085447F6A870A2
:10232000C2F20000B5F1FF3F08BFC0F808A403D017
:102330005244511ACBF804101AF00705304617BF63
:10234000C5F108054FF48055AA4405F5805553445E
:102350001B051B0DED1A294600F0C6F9B0F1FF3F31
:1023600000F02C81CAEB0001491941F00101DBF8B2
:10237000042048F2C433C7F808A0C2F20003AA1828
:10238000B845CBF80420CAF8041017D0B9F10F0FE4
:1023900040F2DF80A9F10C01052521F0070108EBCF
:1023A00001000F2985604560D8F8040000F00100A5
:1023B00041EA0000C8F8040000F2AC80D04648F2C0
:1023C000C433DBF82C10C2F200038A42DBF8301071
:1023D00088BFDA6248F2C433C2F200038A4288BF7F
:1023E0001A6382E05C189A68D9683046666803F11F
:1023F00008058A6046F00103D160636000F0FCF8D4
:102400005AE608EB040342F0010244F001043046AE
:10241000C8F8044008F108055A60BB6000F0ECF809
:102420004AE64FEA5C22042A54D9142A00F2898031
:102430005B324FEAC208A84447F6A877C2F2000709
:10244000D8F80800404503D16FE08068804504D08B
:10245000426822F003029445F7D3D0F80CC0C3F8C9
:102460000CC098607A68C360CCF808308AE61F19FF
:10247000304644F00104CF605C6003F10805BA50B7
:1024800042F001028F607A60B960F96000F0B4F840
:1024900012E60AF1010A1AF0030F5FD003F10808EF
:1024A00089E603F10802D3689A4208BF0EF1020ED2
:1024B0003FF436AEEFE51D461918DA68304655F898
:1024C000083F4C68936044F00104DA604C6000F00F
:1024D00093F8F1E54FEA9C1238324FEAC208AAE7B6
:1024E000B8453FF411AFD7F80880D8F8042022F09F
:1024F0000302944294BF00230123121B0F2AD8BF6A
:1025000043F00103002B3FF47CAF3046002500F080
:1025100073F8D1E508F108013046019303F01CF887
:10252000019BD7F808805A6849E74FF0010AD7F8AD
:102530000480921084460AFA02F248EA02027A60A3
:102540008DE7542A24D84FEA1C326E324FEAC20873
:1025500071E70123D046CAF80430C6E74A461EF0A8
:10256000030F13460EF1FF3E33D053F808299A4269
:10257000F5D07B684FEA4C0C9C453FF68EAEBCF123
:10258000000F3FF48AAE1CEA030F27D0D6460EE6B2
:10259000B2F5AA7F15D84FEADC3277324FEAC2088B
:1025A00049E70805000D00287FF4B6AED7F808808B
:1025B0004B4443F00103C8F8043000E70121002533
:1025C000D5E640F2545082420DD94FF47C787E22F9
:1025D00031E77B6823EA0C037B60CBE74FEA4C0CC6
:1025E0000AF1040ACFE74FEA9C427C324FEAC20864
:1025F00021E700BF704700BF704700BF0FB447F628
:10260000B463C2F2000310B51C6882B024B1A369A0
:1026100013B9204602F01CFF204605AC049A23465D
:102620008168019400F0B2F802B0BDE8104004B037
:10263000704700BF0EB410B5044683B018B183696B
:102640000BB902F005FF204606AC059A23468168C7
:10265000019400F09BF803B0BDE8104003B0704750
:1026600030B5044689B008460D4600F051F847F6EB
:1026700028430195C2F2000303930290431C079381
:102680000123049301AB0593022306930CB1A369C4
:10269000EBB147F6B4632046C2F200031B689B68A7
:1026A0009A8912F4005F01BF42F400529A81596E78
:1026B00021F40052A16808BF5A6605AA03F02CF85D
:1026C000002814BF4FF0FF300A2009B030BD20466B
:1026D00002F0BEFEDDE700BF47F6B4630146C2F27A
:1026E00000031868BCE700BF38B548F28844C2F25E
:1026F00000040546084600232360FEF7C3FBB0F143
:10270000FF3F00D038BD2368002BFBD02B6038BDC5
:1027100020F0030110F00300C0F1000051F8043B69
:1027200000F1040C4FEACC0C6FF000021CBF22FA3F
:102730000CF213434FF0010C4CEA0C2C4CEA0C4CFD
:10274000A3EB0C0222EA030212EACC1204BF51F8F6
:10275000043B0430F4D013F0FF0F1FBF013013F41B
:102760007F4F013013F47F0F18BF0130704700BF57
:10277000936810B5144613B95360184610BD02F0A3
:10278000CBFF00236360A36010BD00BF2DE9F04FB5
:10279000ADF5AE6D83B00E4615469A46814603F000
:1027A000ABF900681D90B9F1000F04D0D9F81830CA
:1027B000002B00F05A8147F6A043C2F200039E426C
:1027C00008BFD9F8046010D047F6C043C2F2000336
:1027D0009E4208BFD9F8086007D047F6E043C2F22E
:1027E00000039E4208BFD9F80C60B6F80CC01FFA6F
:1027F0008CF313F4005F09D14CF4005C726EA6F800
:102800000CC01FFA8CF322F40052726613F0080F0A
:1028100001F001833269002A01F0FD8203F01A03FE
:102820000A2B00F0E080002212921A9200231C92E0
:102830000DF59C641192043419920DF5A4621B935A
:1028400004320DF590632832033318920793002366
:10285000CDF84C45CDF85035CDF854352B781A1EAF
:1028600018BF0122252B0CBF002202F0010232B357
:102870002F4617F8013F1A1E18BF0122252B0CBF47
:10288000002202F00102002AF3D1B7EB050808BFCD
:102890003D4614D0C4F80480DDF85035DDF85425E9
:1028A00001332560072B4244CDF85035CDF854252F
:1028B00078DC083411983D46404411903B78002B59
:1028C0007CD06B1C4FF0FF372B204FF0200C0021E9
:1028D0004FF000020F918DF87725CDF82CA06A7883
:1028E0000A915D1CA2F12003582B00F28682DFE8DA
:1028F00013F0980284028402A402840284028402F7
:10290000840284028402AD02BA028402C102CA02B5
:102910008402E702F002F002F002F002F002F0029C
:10292000F002F002F0028402840284028402840233
:102930008402840284028402840204032603840243
:10294000260384028402840284026A0384028402CD
:1029500081048402840284028402840214048402B6
:1029600084022F048402840284028402840284028A
:1029700084028402840284024F0465042603260331
:1029800026037303650484028402790384028503A9
:102990009603AD030A048402CC038402F403840288
:1029A0008402C0000DF5A862484631460C32FFF79C
:1029B000DFFE58B90DF59C6404347BE7DDF854352F
:1029C000002B41F092810023CDF85035B38913F0EC
:1029D000400F02D04FF0FF30119011985FB00DF50D
:1029E000806DBDE8F08FB6F90E30002BFFF61BAFFF
:1029F000376A2CF0020CD6F828E00DF58E64ADF89D
:102A000088C40C34B6F80EC02A46534648462146C0
:102A10001FADCDF89C740027CDF88C54CDF87C54B4
:102A20004FF48065CDF8A4E4ADF88AC4CDF8905495
:102A3000CDF89474CDF88454FFF7A8FE00281190C7
:102A400009DB2146484602F093FB1199B84218BFB2
:102A50004FF0FF311191BDF8883413F0400FBCD016
:102A6000B38943F04003B381B7E7484602F0F0FC76
:102A7000A1E60A9847F6704CC2F2000C169210F0CC
:102A8000200FCDF864C000F06E830B99CB1D23F0AE
:102A9000070303F108020B92D3E900AB5AEA0B02D9
:102AA0000A9B0CBF00220122134240F06B860223D6
:102AB0004FF000018DF87715002FA2BFDDF828C078
:102AC0002CF0800CCDF828C0002F18BF42F0010276
:102AD000002A00F01E84012B00F0DE85022B00F09E
:102AE000C185189913914FEADA084FEADB0C48EADE
:102AF0004B780AF00700E346C24630305AEA0B0230
:102B000001F8010DEFD1DDF828C013911CF0010F81
:102B100040F08C861898401A10909DF87735109ADE
:102B20001797BA42B8BF3A460C9213B10C9A0132C9
:102B30000C920A9B0A9813F0020315931EBFDDF84E
:102B400030C00CF1020CCDF830C010F084001490AD
:102B50004DD10F990C9A8F1A002F48DD102F47F690
:102B60002C48D8BFC2F2000830DDC2F200080DF5D3
:102B7000A86B43464FF0100AA8460BF10C0B1D46FC
:102B800002E0103F102F1EDDC4F804A0DDF8503520
:102B9000DDF85425013325601032072BCDF854257C
:102BA00004F10804CDF85035EBDD0DF59C64484682
:102BB00031465A460434FFF7DBFD00287FF406AFA8
:102BC000103F102FE0DC2B46454698466760DDF845
:102BD0005035C4F800805A1CDDF85435CDF8502526
:102BE000DB19072ACDF8543500F38A8508349DF89F
:102BF00077359BB101236360DDF850350DF5AE628A
:102C000007322260DDF854250133CDF8503501320A
:102C1000072BCDF8542500F3B6840834159B9BB1DF
:102C200002236360DDF850350DF5AE620432226098
:102C3000DDF854250133CDF850350232072BCDF89D
:102C4000542500F3AF840834DDF850C0BCF1800F88
:102C500000F07683179B109A9F1A002F43DD102FE8
:102C6000DFF88C8B2EDD43460DF5A86BA8464FF0A0
:102C7000100A0BF10C0B1D4602E0103F102F1EDD59
:102C8000C4F804A0DDF85035DDF854250133256083
:102C90001032072BCDF8542504F10804CDF8503537
:102CA000EBDD0DF59C64484631465A460434FFF787
:102CB0005FFD00287FF48AAE103F102FE0DC2B462A
:102CC000454698466760DDF85035DDF854250133F8
:102CD000C4F80080D219072BCDF85425CDF8503513
:102CE00000F342840834DDF828C01CF4807F40F0F3
:102CF0009D82109813996060DDF85035DDF85425F9
:102D0000013321601218072BCDF85035D8BF04F1DC
:102D10000803CDF8542500F39B830A9911F0040FA2
:102D200055D00F9ADDF830C0CCEB0207002F4EDDF6
:102D3000102F47F62C48D8BFC2F200082EDDC2F291
:102D400000080DF5A86A42461024A8460AF10C0AAC
:102D5000154602E0103F102F1DDD5C60DDF85025A8
:102D6000DDF8541501321D601031072ACDF85415D5
:102D700003F10803CDF85025ECDD484631465246B4
:102D8000FFF7F6FC0DF59C63043300287FF41EAEBC
:102D9000103F102FE1DC2A46454690465F60DDF883
:102DA0005025C3F80080DDF854350132CDF85025A8
:102DB000FB18072ACDF854350BDD0DF5A8624846FF
:102DC00031460C32FFF7D4FC00287FF4FFADDDF86C
:102DD000543511980C9A0F998A42ACBF801840184C
:102DE0001190002B40F042830DF59C640023DDF828
:102DF0002CA00434CDF8503530E51692002A3FF46B
:102E0000DDAD0DF5A46001234FF0000C04300C93F0
:102E10008DF824258DF877C5139010930021179114
:102E200087E69DF87735002B40F02B850B992B46D4
:102E30008DF877C52A780B9153E50B990A9B43F0DF
:102E400001030A932B462A780B914AE50B990B9ABA
:102E500009680F91111D0F9B002BC0F280872A7803
:102E60002B460B913DE50B992B468DF877052A787B
:102E70000B9136E50B990A9B43F004030A932B460A
:102E80002A780B912DE52B4613F8012B2A2A01F005
:102E9000CD80A2F13001092901F2378002350027E7
:102EA00015F8012C07EB87072B46013501EB470787
:102EB000A2F130010929F3D947EAE7771D4611E568
:102EC0000B992B460A9A42F080020A922A780B91BB
:102ED00007E5A2F130014FF000082B4608EB880807
:102EE00013F8012B01EB4808A2F130011D46092916
:102EF000F3D9CDF83C801D46F4E40A9B169243F0CA
:102F000010030A93DDF828C01CF0200F00F05D814B
:102F10000B98C31D23F0070303F108010B91D3E9BC
:102F200000ABBAF1000F7BF10002C0F29B845AEAB9
:102F30000B034FF001030CBF00220122BCE50A98ED
:102F4000169210F0080F00F0ED840B99CB1D23F0C2
:102F5000070303F108020B92D3F80480D3F800A012
:102F6000CDF86C80CDF848A05046414603F0B4FE41
:102F70008346002800F099855046002200234146F0
:102F8000FEF7E6FF002840F00B859DF8773547F601
:102F9000644147F660421698C2F20001C2F2000294
:102FA0004FF0030C4728D8BF114613910A99CDF86A
:102FB00030C021F08001CDF840C00A914FF0000CE4
:102FC000CDF85CC0B1E50B990A9B43F008030A9366
:102FD0002B462A780B9184E40A9941F040010A912A
:102FE0000B993CE72A786C2A00F055850B990A9BCF
:102FF0000B9143F010030A932B4672E40A9A12F0E5
:10300000200F00F082840B98119A036810464FEA53
:10301000E0710B9AC3E9000102F1040A1EE4169262
:103020000A9A12F0200300F0EF800B9BDA1D0023B8
:1030300022F0070202F1080CCDF82CC0D2E900AB57
:103040005AEA0B000CBF0022012231E50B987821CF
:10305000DDF828C01691036847F670408DF87515A5
:1030600030218DF874154CF0020C0B991A1E18BF04
:103070000122C2F200009A464FF0000B0431CDF855
:1030800028C0199002230B9112E50B9B16924FF06A
:103090000002181D8DF877251B680B901393002BE9
:1030A00000F0C686002F1398C0F28F8600213A46A2
:1030B00002F0C4FD0346002800F0F58613981B1AA1
:1030C0001093BB4240F3BE851097002127EAE777B3
:1030D0009DF877350C97179127E5DDF828C01692F3
:1030E0001CF0200F23D00B980123C21D22F00702F1
:1030F00002F108010B91D2E900AB5AEA0B020CBFB6
:1031000000220122D4E40A992B4641F020010A91C1
:103110000B992A780B91FFF7E4BB0A9B169243F0B8
:1031200010030A93DDF828C01CF0200FDBD10A9BA6
:1031300013F0100F00F0D5830B980123021D0B92A2
:1031400001680A1E18BF01228A464FF0000BAFE447
:103150000A98169247F64C4210F0200FC2F2000275
:1031600019927FF492AC0A9B13F0100F40F01A836F
:103170000A9A12F0400F00F015830B9B03F1040C28
:10318000CDF82CC0B3F800A0D2464FF0000B85E478
:1031900016920DF5A4610B9A4FF0010C4FF0000050
:1031A0000431CDF830C0136804328DF877050B92E6
:1031B0001391CDF840C08DF824352FE6DDF828C0F6
:1031C00016921CF0200F7FF4A3AE0A9A12F0100F93
:1031D00040F0F1820A9A12F0400F00F0EC820B9B53
:1031E00003F1040CCDF82CC0B3F900A0D2464FEA8D
:1031F000EA7B96E60A99169241F010010A910A9A22
:1032000012F020037FF411AF0A9911F0100200F0C0
:1032100054830B9A02F1040CCDF82CC011680A1EDD
:1032200018BF01228A464FF0000B41E4169A652A26
:1032300040F328811298002200231B99FEF77EFE9E
:10324000002800F0BE8101236360DDF8502547F6B9
:103250008C43C2F200032360DDF854350132CDF80F
:1032600050250133072ACDF85435D8BF04F108039F
:1032700000F39B83DDF870251A98824204DB0A99DB
:1032800011F0010F3FF449AD01225A60DDF85025DD
:10329000DDF8541501321D980131072ACDF8541577
:1032A0001860CDF8502500F35F8508331A994F1E3A
:1032B000002F7FF732AD102FDFF8348540F3EA821C
:1032C00042460DF5A86AA84610240AF10C0A1546D4
:1032D00003E0103F102F40F3DA825C60DDF85025E8
:1032E000DDF8541501321D601031072ACDF8541550
:1032F00003F10803CDF85025EBDD48463146524630
:10330000FFF736FA0DF59C6304330028E1D0FFF790
:103310005DBB7BB90A9911F0010F0BD00DF5A462CA
:10332000302304328DF84B3527320123139210934A
:10333000FFF7F3BB1898002110911390FFF7EDBB36
:103340000F980C99471A002F7FF784AC102FDFF8E5
:10335000A0842EDD43460DF5A86BA8464FF0100A59
:103360000BF10C0B1D4602E0103F102F1EDDC4F8C0
:1033700004A0DDF85035DDF8542501332560103206
:10338000072BCDF8542504F10804CDF85035EBDDBA
:103390000DF59C64484631465A460434FFF7E8F977
:1033A00000287FF413AB103F102FE0DC2B4645467E
:1033B00098466760DDF85035C4F800805A1CDDF887
:1033C0005435CDF85025DB19072ACDF8543500F3D4
:1033D0003A8208343EE413996360DDF85025216099
:1033E000DDF854150132CDF85025CB18072ACDF859
:1033F000543500F3498508341D9A0123DDF87075B2
:103400006360DDF850352260DDF854250133CDF8D6
:1034100050350132072BCDF85425D8BF04F10803ED
:1034200000F323851398DDF87025C7191A981F60DB
:10343000811A5960DDF854158A1ADDF850151218F2
:10344000CDF854250131CDF85015072940F33282CB
:103450000DF5A862484631460C32FFF789F900287D
:103460007FF4B4AA0DF59C63043356E40DF5A8620D
:10347000484631460C32FFF77BF900283FF4B4ACE4
:10348000FFF7A4BA1A9901294CDD01236360DDF826
:103490005035DDF85425013313980132072BCDF850
:1034A00054252060CDF8503500F3B2810834012353
:1034B0006360DDF85035DDF8542501331D99013284
:1034C000072BCDF854252160CDF8503500F39281BB
:1034D00008341298002200231B99FEF72FFD0028C4
:1034E00040F01D811A9B13985A1E6260DDF850351A
:1034F000411C2160DDF854150133CDF850358A1890
:10350000072BCDF8542521DC08341C9B0DF5AC624B
:103510001C9822606360DDF85035DDF854250133D6
:10352000FFF7F0BB0A9A12F0010FAED1139A0123F4
:103530006360DDF850352260DDF854250133CDF8A5
:1035400050350132072BCDF85425DDDD0DF5A8628D
:10355000484631460C32FFF70BF900287FF436AAB3
:103560000DF59C640434D0E70DF5A8624846314659
:103570000C32FFF7FDF800287FF428AA0DF59C64B3
:103580000434FFF7B0BB0DF5A862484631460C3253
:10359000FFF7EEF800287FF419AA0DF59C640434B7
:1035A000FFF73CBB0DF5A862484631460C32FFF7E9
:1035B000DFF800287FF40AAA0DF59C640434FFF7B5
:1035C00043BBDDF87035002B40F3FD811A998B4227
:1035D000FFF601AF139A6160DDF850352260DDF827
:1035E00054250133CDF850355218072BCDF854250A
:1035F000D8BF04F1080300F32984DDF870451A9858
:10360000241A002C40F3B381102CDFF8E48140F33E
:103610009D8142460DF5A86AA84610270AF10C0ABA
:10362000154603E0103C102C40F38D815F60DDF8FF
:103630005025DDF8541501321D601031072ACDF8F0
:10364000541503F10803CDF85025EBDD484631460B
:103650005246FFF78DF80DF59C6304330028E1D046
:10366000FFF7B4B9189A1998134613920AF00F028B
:103670004FEA1A1141EA0B714FEA1B1C825C8A4621
:10368000E3465AEA0B0C03F8012DEFD11898139377
:10369000C01A1090FFF741BA09220023524573EB7C
:1036A0000B00DDF860801FD223464446B8461F4613
:1036B000504659460A22002303F0C8FE0023504614
:1036C000594602F1300C0A2204F801CD03F0BEFE87
:1036D0000922002382468B46524573EB0B03E7D346
:1036E0003B464746A0461C4608F1FF300AF1300A27
:1036F000139008F801AC1899091A1091FFF70DBA48
:103700000DF5A862484631460C32FFF731F8002823
:103710007FF45CA90DF59C640434FFF768BA1A992C
:103720004F1E002F7FF7F1AE102FDFF8C4804EDD63
:1037300043460DF5A86BA8464FF0100A0BF10C0B91
:103740001D4602E0103F102F3EDDC4F804A0DDF856
:103750005035DDF85425013325601032072BCDF8A4
:10376000542504F10804CDF85035EBDD0DF59C64CB
:10377000484631465A460434FEF7FAFF0028E1D0A5
:10378000FFF724B916983021DDF828C00122022362
:103790008DF874154CF0020C8DF87505CDF828C025
:1037A000FFF786B90B98011D03680B919A464FF0FD
:1037B000000BFFF773B90B98011D03680B919A4634
:1037C0004FEAEA7BFFF7ADBB2B464546984667605C
:1037D000DDF85035DDF854250133C4F80080D219E6
:1037E000072BCDF85425CDF850357FF78DAEADE6DB
:1037F0003C7C00200DF5A862484631460C32FEF7AD
:10380000B7FF00287FF4E2A80DF59C64043460E65D
:103810000DF5A862484631460C32FEF7A9FF002894
:103820007FF4D4A80DF59C64043440E6302800F001
:10383000EC821398302300F8013D18991390091A6F
:103840001091FFF76AB90DF5A862484631460C326F
:10385000FEF78EFF00287FF4B9A80DF59C640434B0
:10386000FFF7F8B9DAF1000A6BEB4B0B2D235AEA9C
:103870000B0C8DF877350CBF002201220123FFF7D6
:103880001BB90B992B462A780B91FFF72AB82A46C9
:10389000454690465F60DDF85025DDF8541501324D
:1038A000C3F80080C919072ACDF85415CDF8502562
:1038B0003FF7CEAD0833FFF730BA0A9810F0400357
:1038C00000F0ED810B9913460A1D0B92B1F800A090
:1038D000BAF1000218BF0122D2464FF0000BFFF7E9
:1038E000E7B80A9B13F0400F00F0CC810B9801233E
:1038F000011D0B91B0F800A0BAF1000218BF01221F
:10390000D2464FF0000BFFF7D3B80A9B13F0100F0D
:1039100000F0A4810B98119900F1040A0368196062
:10392000FEF79CBF0B98C31D23F0070303F10801AA
:103930000B91D3F80480D3F800A0CDF86C80CDF8BB
:1039400048A0FFF711BB2A46454690465C60DDF86B
:103950005025DDF854150132C3F800800919072AF3
:10396000CDF85415CDF8502500F3EA8208330A99B2
:1039700011F0010F3FF4D1A901225A60DDF8502562
:10398000DDF8541501321D980131072ACDF8541580
:103990001860CDF850253FF75BAD0833FFF7BDB990
:1039A0002D238DF87735FFF7F2BA0DF5A86248465A
:1039B00031460C32FEF7DCFE00287FF407A80DF537
:1039C0009C63043356E401236360DDF8502547F619
:1039D0008C43C2F200032360DDF854350132CDF888
:1039E00050250133072ACDF85435D8BF04F1080318
:1039F00000F38781DDF870253AB91A9A2AB9DDF803
:103A000028C01CF0010F3FF488A901225A60DDF89C
:103A10005025DDF8541501321D980131072ACDF8E3
:103A200054151860CDF8502500F379810833DDF87E
:103A300070757F42002F40F3B381102FDFF850865E
:103A400040F3D28142460DF5A86AA84610240AF137
:103A50000C0A154603E0103F102F40F3C2815C6052
:103A6000DDF85025DDF8541501321D601031072AAC
:103A7000CDF8541503F10803CDF85025EBDD484689
:103A800031465246FEF774FE0DF59C630433002860
:103A9000E1D0FEF79BBF0B996B1C0A9A42F0200203
:103AA0000A926A780B91FEF71CBF5046414603F01C
:103AB00025F9002840F0FF80B7F1FF3F00F0518268
:103AC0001698672814BF00230123472808BF43F036
:103AD000010313B1002F08BF01270DF5AB6043466A
:103AE00052460A99C0E90023DDF85C3541F4807143
:103AF0000A91002BC0F26482002117911698662863
:103B000014BF00230123462808BF43F0010310938C
:103B1000002B00F0D181BC460323CDF830A00DF579
:103B2000AE61CDF834804846009302910DF5AC614A
:103B3000DDE90C230C31CDF804C003910DF5AD6126
:103B4000CDF824C0049100F0C7FB169ADDF824C01C
:103B5000B2F1670318BF0123472A0CBF002303F00B
:103B60000103139033B90A9B13F0010F08BFDDF86E
:103B700068B516D01398109900EB0C0B31B103788F
:103B8000302B00F0DA80DDF870359B44504600227F
:103B900000234146FEF7D2F9002800F0C281CDF89B
:103BA00068B5169A1398672A14BF00230123472A81
:103BB00008BF43F00103C0EB0B001A90002B00F08C
:103BC0008A81DDF8701511F1030F109102DB8F422D
:103BD00080F28C81169A023A16921099169A4B1E10
:103BE000CDF87035002B8DF86025C0F234822B2281
:103BF0008DF86125092B00F3B6810DF5AC623033E9
:103C000004328DF8633530238DF862350DF5AC63E1
:103C10001A981A99D31A18181C930129109040F376
:103C2000108210980130109020EAE0710C911798E2
:103C3000002800F06E812D2300218DF87735179133
:103C4000FEF774BF109A4FF0000C9DF8773522EA0A
:103C5000E272CDF85CC00C92FEF767BF0A9A12F0D0
:103C6000400F17BF0B980B9A119900F1040A11BF6E
:103C7000036802F1040A1368119814BF19801860D0
:103C8000FEF7ECBD0B9A131D0B93116801230A1E5E
:103C900018BF01228A464FF0000BFEF709BF0B98B0
:103CA000021D0B9201680A1E18BF01228A464FF0BE
:103CB000000BFEF7FDBE47F66C4247F668431699C7
:103CC000C2F20003C2F2000203204729D8BF1A46FD
:103CD00013920A9A0C9022F08002CDF85CB00A92FE
:103CE0009DF877351090FEF720BF0DF5A862484685
:103CF00031460C32FEF73CFD00287EF467AEFEF73D
:103D000062BE0DF5A862484631460C32FEF730FD22
:103D100000287EF45BAE0DF59C6304336AE60DF576
:103D2000A862484631460C32FEF722FD00287EF498
:103D30004DAE0DF59C63043379E650460022002316
:103D40004146CDF824C0FEF7F9F8DDF824C000287C
:103D50007FF419AFCCF10103CDF8703515E70F9A58
:103D600052420F92FFF787B80DF5A86248463146D8
:103D70000C32FEF7FDFC00287EF428AE0DF59C63A6
:103D80000433FFF793BA0DF5A862484631460C326A
:103D9000FEF7EEFC00287EF419AE0DF59C630433AB
:103DA0001A9913985960DDF85025DDF854151860FC
:103DB00001321A98CDF850250918072ACDF8541564
:103DC0003FF746AB0833FEF7A8BF00211791FEF777
:103DD0009FFC9DF8773520EAE07210900C92FEF778
:103DE000A4BE2A46454690465F60DDF85025DDF8C2
:103DF00054150132C3F80080C919072ACDF85415AB
:103E0000CDF85025BFDC0833CAE7189A1399511A28
:103E10001091FEF782BE4846314600F049F900286D
:103E20007EF4D8ADB6F80CC01FFA8CF3FEF7F6BCE2
:103E3000062F28BF062747F68441C2F2000127EA71
:103E4000E772109713910C92FEF7E8BF0DF5A86288
:103E5000484631460C32FEF78BFC00287EF4B6ADA6
:103E60000DF59C630433FFF7C8BB0DF5A862484607
:103E700031460C32FEF77CFC00287EF4A7AD0DF530
:103E80009C630433FFF7CEBA0DF5A862484631466D
:103E90000C32FEF76DFC00287EF498AD0DF59C64A5
:103EA0000434FFF7A9BA109727EAE77717900C9721
:103EB0009DF87735FEF739BE1699652914BF0023A2
:103EC0000123452908BF43F00103002B46D007F129
:103ED000010C022321E6169B652B76DD169A662AD5
:103EE0001CBFDDF87035109300F083801A9B10988A
:103EF00083426EDC0A9911F0010F40F08E8020EAB7
:103F0000E07267230C92169391E600271D46FEF798
:103F1000E9BC10999DF8773521EAE1710C91FEF723
:103F200004BEDDF868359B4598BF9B467FF639AEE9
:103F3000302203F8012B9B45CDF86835F9D830E6DF
:103F40000DF5A862484631460C32FEF711FC0028F8
:103F50007EF43CAD0DF59C63043308E5BC460233AA
:103F6000DBE50737B9E546F2676C0DF59061033183
:103F7000C6F2666C8CFB0320DA17C2EBA00202EBE0
:103F80008200A3EB400013463030092A01F8010DEE
:103F9000F0DC3033481EDAB201F8012C079B834273
:103FA0006AD90DF5AC63033301E011F8012B03F876
:103FB000012C1A46DDF81CC001338C45F5D825E6E6
:103FC0002D2208F10048179298E5DDF87005109051
:103FD00003E6109B1A99002BDABF1098C0F1020378
:103FE00001235B186722109323EAE37316920C9364
:103FF0001DE6DDF870050028109031DD1FB90A9923
:1040000011F0010F0ED0109866211691431CDB1998
:10401000109323EAE3720C9209E610986721169137
:104020000130109020EAE0720C9200E60B991A78A9
:104030000F6804310B91002FB8BF4FF0FF37FEF728
:1040400050BC0A9A12F0010F04BF20EAE0730C93EF
:104050003FF4EDADE5E52D225B428DF86125C9E524
:1040600077B90A9B13F0010F0AD14FF0010CCDF87C
:1040700030C0CDF840C0DAE50DF5AC620232C5E5DE
:104080000237662127EAE772109716910C92CEE567
:104090003C7C002010B447F6B464C2F200048C46A5
:1040A000134601466246206810BCFEF76FBB00BF96
:1040B00070B547F6B465C2F2000506460C4628689E
:1040C00010B18369002B36D047F6A043C2F200033B
:1040D0009C4238D047F6C043C2F200039C4241D014
:1040E00047F6E043C2F200039C4204BF2B68DC6841
:1040F000A289114693B213F0080F184618BF22691F
:1041000033D01AB313F0010107D063690021A16015
:104110005B42A36142B1002070BD13F0020F08BFE3
:104120006169A160002AF6D1A38913F0800FF2D053
:104130004FF0FF3070BD01F08BF947F6A043C2F29B
:1041400000039C42C6D12B685C68D1E703F4207160
:10415000B1F5007FD6D03046214601F001FDA3899C
:104160002269CFE72B689C68C2E713F0100FDFD0FD
:1041700013F0040F08BF226917D0616B51B104F12D
:104180004403994203D0304601F0E6F9A28990B287
:104190000023636322694FF6DB71C0F20001002344
:1041A00000EA01016360A181226041F00803A3815C
:1041B0009BB2A6E7000000002DE9F84F03690E69E5
:1041C000824689469E4200F38380F21C01F1140569
:1041D00000F11404013E92008B18121803F1040838
:1041E00059685068013102F0CBFF0746002839D0EA
:1041F00000239C461A46E958E0581FFA81FE4FEA10
:10420000114B81B20EFB07CE51180BFB07FC0CEBD8
:104210001E4C1FFA8EFECEEB01011FFA8CF24FEA04
:104220001C4CC2EB10421FFA81FE02EB21424EEA07
:104230000241E1500433121459198845DBD2321D72
:104240000AEB8203596869B99C4209D25AF82220C4
:1042500012B105E01A681AB9043B013E9C42F9D339
:10426000CAF810604946504601F002FF00282CDBD6
:10427000002301379C46EA58E05891B2120C1FFA0D
:1042800080F9C2EB1042C1EB0901614402EB21420B
:1042900089B241EA0241E15004334FEA224C5A19F3
:1042A0009045E8D2321D0AEB8203596869B99C42F5
:1042B00009D25AF8222012B105E01A681AB9043B53
:1042C000013E9C42F9D3CAF810603846BDE8F88F29
:1042D0000020BDE8F88F00BF2DE9F04F466AA1B07D
:1042E0000446904699462D9D002E00F023843268A6
:1042F00082B1616A4FF0010C766820460B68566007
:104300004A6819460CFA02F29A6001F0EBFF636A00
:1043100000221A60B9F1000638DB00232B6040F25E
:104320000003C7F6F0731A4606EA0303934217D058
:104330000022002340464946CDE90689FDF7FEFDEF
:10434000002829D02C9801232E990360002900F021
:10435000D080794B581E2E9A136021B0BDE8F08FA3
:104360002C9842F20F730360B8F1000F00F09580B3
:1043700047F69C40C2F200002E990029EDD0C27889
:10438000C31C002AE7D000F10803E4E726F000464A
:104390000123B1462B60C2E72046DDE906231EA9B2
:1043A00000911FA9019101F0EFFFC6F30A55834662
:1043B000002D7ED0DDE90601A5F57E751F9F073D26
:1043C00021F07F4323F4700343F07E51002341F436
:1043D000E001199340F200030022C3F6F873FDF7E1
:1043E00091F94FA3D3E90023FDF740FB4EA3D3E996
:1043F0000023FDF789F9CDE908012846FDF7D0FA39
:104400004BA3D3E90023FDF731FB02460B46DDE960
:104410000801FDF779F9CDE9080102F0EFFF00226C
:1044200000230646DDE90801FDF792FD40B1304664
:10443000FDF7B6FADDE90823FDF780FD00B9013E7E
:10444000162E5BD901231893013FB7EB050A42BF33
:10445000CAF1000ACDF83CA04FF0000A01D40022B6
:104460000F92002EC0F27183B24400231796159369
:104470002A9B092B62D8052B40F377862A980027C0
:1044800004382A902A998B1E032B00F2DD83DFE883
:1044900013F0A503D803D503C40326F07F4626F402
:1044A0007006002E7FF464AF47F69040C2F2000021
:1044B00062E71F9F1E9BFB1803F586639D1C202D42
:1044C000DCBFC5F1200008FA00F008DD1E3BC5F195
:1044D000400216FA02F228FA03F342EA0300FDF75B
:1044E0004FFAA5F586650122033D1992A1F1F871F5
:1044F00070E747F68C40C2F200002EE747F64853BB
:10450000DDE90601C2F2000303EBC603D3E9002391
:10451000FDF71EFD002840F02083189094E700BFAF
:1045200061436F63A787D23FB3C8608B288AC63FB9
:10453000FB799F501344D33F8D7C002000234FF024
:10454000FF301F4601212A931190169108902B935A
:10455000656A00236B602046696801F0DFFE636ACC
:1045600028601B681093002F00F05B81002E40F341
:104570002A8447F6485306F00F02C2F200033511B1
:1045800003EBC20315F0100FD3E90001CDE90C01D4
:1045900000F0E78247F62063DDE90601C2F200037E
:1045A00005F00F054FF00308D3E90823FDF788FB5A
:1045B000CDE91201BDB147F62067DDE90C23C2F257
:1045C000000715F0010F1046194607D0D7E9002360
:1045D00008F10108FDF74AFA02460B4608376D104C
:1045E000EFD1CDE90C23DDE90C23DDE91201FDF764
:1045F00067FBCDE90C011899002900F0DE8040F23C
:104600000003DDE90C010022C3F6F0734FF0000552
:10461000FDF79EFC08B14FF00105089A002AD4BFAF
:10462000002505F00105002D00F0C780119B002B2F
:1046300040F3F58040F200030022C4F22403DDE9D8
:104640000C01FDF713FACDE90C0108F10100711E10
:104650001291FDF7A5F902460B46DDE90C01FDF7C5
:1046600005FA40F200030022C4F21C03FDF74CF8E7
:10467000DDF844C08046A1F15079169B002B00F074
:10468000AD8347F6485340F20001C2F20003002018
:1046900003EBCC03C3F6E071CDF80CC053E9022361
:1046A000FDF70EFB42464B46109DFDF72BF880466A
:1046B0008946DDE90C0102F0A1FE0746FDF770F91D
:1046C00002460B46DDE90C01FDF71CF807F130034B
:1046D000CDE90C01404605F8013B4946DDE90C23D4
:1046E000FDF754FC002840F0138240F20001DDE9A0
:1046F0000C230020C3F6F071FDF704F802460B46C8
:1047000040464946FDF742FCDDF80CC0002840F069
:10471000E783BCF1010F40F38280CDF868B0012738
:10472000CDF870A01D966646DDE90CAB0C9410E048
:1047300040F200010020C3F6F071FCF7E3FF4246AF
:104740004B46FDF705FC002840F0C783B74280F2D6
:104750008B8440F20003404649460022C4F2240301
:104760000135FDF783F940F200030022C4F224036F
:104770008046894650465946FDF778F98B46824671
:1047800002F03CFE0446FDF70BF9303402460B46BE
:1047900050465946FCF7B6FF109A4B46D455424650
:1047A000013782468B46FDF7D3FB52465B46002815
:1047B000BED0DDF868B00C9CAAE14046FDF7F0F8E9
:1047C000DDE90C23FDF752F940F200030022C4F2A8
:1047D0001C03FCF799FF089AA1F150758046A94681
:1047E000002A40F0EC8240F20003DDE90C010022D7
:1047F000C4F21403FCF786FF42462B46CDE90C01B8
:10480000FDF7C4FB002840F04A824246DDE90C0176
:1048100005F10043FDF79CFB002840F0D581DDE960
:1048200006891E9B6FEA03074FEAD7770E2ECCBF8F
:10483000002707F00107002F00F0B7802B9847F6FC
:104840004853C2F20003089903EBC603C20F0029C4
:10485000CCBF002202F00102D3E90001CDE904013E
:10486000002A40F0A08102460B4640464946FDF72B
:1048700027FA109D02F0C2FD8246FDF791F8DDE9AE
:104880000423FDF7F3F802460B4640464946FCF781
:1048900039FF0AF1300305F8013B089A012A8046E6
:1048A000894652D040F200030022C4F22403FDF7EF
:1048B000DDF800220023CDE90601FDF73FFB0028CB
:1048C00040F0EB8110984FF00108CDF82CB0A346D2
:1048D000871C0F96DDF82090DDE906450AE0FDF71C
:1048E000C5F80022002304460D46FDF727FB0028EB
:1048F00040F0CE81DDE904232046294608F1010875
:10490000FDF7DEF93E4602F079FD8246FDF748F8F4
:10491000DDE90423FDF7AAF802460B4620462946A6
:10492000FCF7F0FE00220AF1300C07F801CC013749
:10493000C14540F20003C4F22403D0D135465C46A1
:104940000F9E8046DDF82CB0894642464B464046D5
:104950004946FCF7D9FE804689464246DDE9040116
:104960004B46FDF7F5FA60B9DDE9040142464B46D6
:10497000FDF7E4FA002800F090811AF0010F00F032
:104980008C81109900E01D4615F8012C6B1E392A08
:1049900040F067838B42F6D11099302301363122E3
:1049A0000B70109B1A701296B2E0169A002A40F013
:1049B000DF80159F0F9D0C92002DD4BF0023012393
:1049C000BAF1000FD4BF002303F001034BB1AA4595
:1049D000B4BF53462B460F98C3EB0A0AED1AC01A10
:1049E0000F90159900291CDD169A002A00F0E98223
:1049F000002F12DD0C993A46204601F0EFFE5A4690
:104A00000C9020460C9901F001FE594603462046C1
:104A1000039301F067FC039B9B46159BDA1B40F058
:104A200011830121204601F08BFE06901798002883
:104A300005DD06992046179A01F0D0FE06902A99C6
:104A4000012940F30A810027179B002B40F0618267
:104A50000123534413F01F0340F02A811C230F9AB3
:104A60009A44ED18D2180F920F9B002B05DD594682
:104A70001A46204601F06CFD8346BAF1000F05DDB1
:104A800006995246204601F063FD069018980028CA
:104A900040F029822A9808990228D4BF00230123D4
:104AA0000029CCBF002303F00103002B00F00C8190
:104AB000002940F08C8005220699089B204601F0D1
:104AC00049FE06905846069901F0D2FA00287EDD8C
:104AD000109D01360027DDF830A0312305F8013B99
:104AE0000699204601F0FEFBBAF1000F00F0D580D8
:104AF0003B1E18BF012357450CBF002303F00103E1
:104B0000002B40F0D0805146204601F0EBFB12967E
:104B10002046594601F0E6FB129A531C00222A70E7
:104B20002C982E990360002900F0D4812E9A1098B9
:104B3000156012E41020FDF783FAC66046608660B7
:104B4000066006466062FFF7D2BB0F9871420022F2
:104B50001591801B17920F908AE40021013E189155
:104B600072E4DDE906234FF00208CDE9122321E5C6
:104B70002A98012840F36C82089A1598531E98428F
:104B8000C0F25882C71A089B002BA8BF0F9DC0F225
:104B900073820F9A204601219A44D2180F9201F095
:104BA000CFFD0C9008E7089B73B940F20003002288
:104BB000C4F21403DDE90401FCF758FF42464B46FA
:104BC000FDF7DAF900286AD0002206920C922B9B9E
:104BD0000027DDF830A0DE43109D81E7002116910B
:104BE0002B98002840F39F812B9801461190089044
:104BF000656A002217296A6040F2AB8204235B00D9
:104C0000013203F114008842F9D9089B6A600E2B27
:104C10008CBF002707F001079DE4012216922B9B11
:104C2000F3181193591C0029C8BF0891E0DC0E2924
:104C30008CBF002707F00107089189E40123169330
:104C4000CEE700221692EAE74FF0FF33002701205B
:104C50001193169008932B977AE4B8F1000F7FF424
:104C6000F2AE29F07F4323F47003002B7FF4EBAE08
:104C700040F20003C7F6F07309EA0303002B3FF488
:104C8000E2AE0F9A0AF1010A012701320F92DBE628
:104C900035465C460F9EDDF82CB0129638E70020B2
:104CA00006900C9014E73946204601F01BFB2AE7DA
:104CB000C3F12003042B40F354820F99043B9A4420
:104CC000ED18C9180F91CFE61699002900F031812F
:104CD000002D05DD0C992A46204601F039FC0C9088
:104CE000002F40F0EA81DDF830A0109D012308F08C
:104CF00001000C9F11900F951D460C960699584681
:104D0000FFF75AFA394630300B90584601F0B0F9A7
:104D1000069952460646204601F09EFBC36880462F
:104D2000002B3DD04FF001094146204601F0DAFA50
:104D30002A9959EA010103D1119A002A00F0EB8166
:104D4000002EC0F29E812A9A324303D1119B002B80
:104D500000F09781B9F1000F00F3CE810F990B9A03
:104D600001F8012B089B0F919D4200F0C28159462A
:104D70000A220023204601F0EDFC574539468346C0
:104D800014D00A2200232046013501F0E3FC5146ED
:104D90000A2200230746204601F0DCFC8246ADE7EC
:104DA0005846414601F064F98146BDE720460A2293
:104DB0000023013501F0CEFC074682469EE712969D
:104DC000DDF820C059E47542002D40F00181DDE995
:104DD00006014FF00208CDE90C010CE447F64851FA
:104DE0004246C2F200014B4601EBCC01CDF80CC0AB
:104DF000109D51E90201FCF739FECDE91A01DDE908
:104E00000C0102F0FBFA0746FCF7CAFD0B4602460E
:104E1000DDE90C01FCF776FC07F13003CDE90C016C
:104E200005F8013BDDF80CC0BCF1010F29D0D146DB
:104E3000DDE90C01B246109E1C9501276546A0468F
:104E400040F200030022C4F22403FCF70FFECDE978
:104E50000C0102F0D3FA0446FCF7A2FD30340246FE
:104E60000B46DDE90C01FCF74DFCF4550137AF4270
:104E7000E6D11C9D013F56464446CA46ED19CDE990
:104E80000C0140F200030022C3F6E073DDE91A01D1
:104E9000FCF73AFC02460B46DDE90C01FDF776F81B
:104EA000F0B940F20001DDE91A230020C3F6E071F9
:104EB000FCF728FC02460B46DDE90C01FDF748F83B
:104EC00000283FF4ACAC2B461D4613F8012D302AC8
:104ED000FAD01DE61098FFF740BADDF868B00C9CD8
:104EE000129E109950E55846069901F0C1F8002825
:104EF000BFF6D0AD594620460A22002301F02AFC15
:104F00001699013E8346002940F01981119A0892B2
:104F1000C0E50698036900EB8303186901F056F8B1
:104F2000C0F1200395E50121119108912B91FFF724
:104F30000FBB109DB146169FAA46DDF81880089E4B
:104F400002E001F007FC834641465846FFF734F97A
:104F500001350A220023594600F1300C0AF807C037
:104F600001372046BE42ECDCDDF830A04E4600277B
:104F7000CDF82CC059460122204601F0E9FA0699E5
:104F8000834601F075F800280FDD109900E01D46FA
:104F900015F8012C6B1E392A40F08C808B42F6D11B
:104FA0001099312301360B709AE503D10B9810F05C
:104FB000010FEAD12B461D4613F8012D302AFAD0F5
:104FC0008EE55946159A204601F008FC834628E5EF
:104FD00005F00F0347F64852C2F20002DDE9060170
:104FE00002EBC303D3E90023FCF740FD2D1108BFFA
:104FF0004FF00208CDE90C013FF4FDAA47F6206707
:10500000DDE90C234FF00208C2F2000715F0010F92
:105010001046194607D0D7E9002308F10108FCF72C
:1050200025FD02460B4608376D10EFD1CDE90C2364
:10503000FFF7E1BA1599179A5B1AC918D21815919A
:105040001792A0E55946204601F0C8FB8346E8E4E4
:105050001999002947D003F58663159F03330F9DE7
:1050600097E50132D2B29DE4DDF868B0DDF870A0BA
:105070001D9E0C9CFFF7D3BB0F99002308980D1AB7
:1050800087E5B9F1000F0F9D0C9E0FDD59460122F7
:10509000204601F05DFA0699834600F0E9FF0028FA
:1050A00047DD0B99392931D001310B910B9A05F865
:1050B000012B15E501321A7012E50C9A2046516851
:1050C00001F02CF90C9B03F10C011A6902329200D9
:1050D00005460C3000F0ECFD20462946012201F087
:1050E00037FA824601E61F9B159F0F9DC3F13603D9
:1050F0004FE50F9D0C9E3DE70B9B0F9D392B0C9EA2
:1051000004D00B98431C05F8013BE9E4392305F86A
:10511000013B10993CE70B9833460F9D39280C9EB4
:10512000F4D0002B01DD01300B900B9905F8011B29
:10513000D6E4BBD10B9810F0010FB7D0B1E7002334
:105140000C9920460A2201F005FB119B08930C9054
:10515000A0E408990E298CBF002707F00107FFF78C
:10516000FAB93FF481AC1C3379E40127FFF78AB91F
:105170000B692DE9F0410C468046002B71D010B12F
:105180008369002B78D047F6A043C2F200039C420B
:1051900008BFD8F8044010D047F6C043C2F200035D
:1051A0009C4208BFD8F8084007D047F6E043C2F257
:1051B00000039C4208BFD8F80C40A3891AB212F031
:1051C000080F35D1626843F40063A381002A5EDDD5
:1051D000E66A002E45D09BB213F4805218BF656D6D
:1051E00059D013F0040F4AD100234046216A2A46C1
:1051F000B047854238D1A1894FF2FF732269C0F2CE
:10520000000301EA03030021616013F4805F616B16
:10521000A381226018BF656519B304F14403994264
:1052200002D0404600F098F900206063BDE8F081AC
:105230002669B6B125682660AD1B12F0030F0CBFBE
:1052400063690023A3600AE032462B46A76A404602
:10525000216AB8470028C0EB0505064404DD002D8F
:10526000F2DC0020BDE8F081A3894FF0FF3043F06D
:105270004003A381BDE8F08100F0EAF883E76268AB
:10528000636BAD1A002BAFD0236CED1AACE7226C28
:10529000002A9DDCE5E701234046216AB047B0F1D2
:1052A000FF3F054602D0A389E66A9AE7D8F80030A6
:1052B0001D2BD6D0A38943F04003A381BDE8F08124
:1052C000014628B147F6B463C2F2000318684FE7FD
:1052D00047F6204345F27111C2F20003C2F2000109
:1052E000186800F0B3BB00BF704700BF704700BF35
:1052F000704700BF704700BF002070470020704714
:1053000047F6B46345F2FD21C2F20003C2F2000188
:10531000186800F0C5BB00BF47F6B46345F2F92139
:10532000C2F20003C2F20001186800F0B9BB00BF6E
:1053300047F2C501C2F2000100F0B2BB47F62043BC
:10534000C2F200031868F3E710B5044600235C308E
:10535000A1811946E281082223606360A36063662D
:1053600023616361A36100F0C7FD46F6855046F6F0
:10537000495146F6215246F61953C2F20000C2F2D4
:105380000001C2F20002C2F200036062A162E262A6
:105390002363246210BD00BF70B568250E4605FB6F
:1053A00001F505F10C01FCF753FE044648B100F18C
:1053B0000C03002146602A4618462160A36000F0D5
:1053C0009BFD204670BD00BF47F62043C2F200039C
:1053D00070B51D680646AB69002B2AD0D8356B68BE
:1053E000AC68013B03D520E06834013B1DD4B4F91F
:1053F0000C20002AF8D100254FF0FF33656604F138
:105400005C00E38129464FF001032560A381082257
:10541000A560656025616561A56100F06DFDE564CD
:105420006563A563A564204670BD286828B105465C
:10543000D5E7284600F00CF8D0E730460421FFF706
:10544000ABFF28600028F2D10C2304463360EAE762
:1054500070B58669044606B170BD45F23133012549
:10546000C2F20003C0F8D8608362C0F8DC60C0F804
:10547000E0608561FFF7A8FF60602046FFF7A4FFAA
:10548000A0602046FFF7A0FF324604212346E060DB
:105490006068FFF759FF2A46A06809212346FFF7F5
:1054A00053FF2346E06812210222BDE870404BE71B
:1054B000F8B547F6A874C2F200040F460546FDF79A
:1054C00099F8A3685E6826F0030606F57E630F333D
:1054D000DF1B3F0B013F3F03B7F5805F07DB002178
:1054E0002846FDF701F9A368F318834204D0284643
:1054F000FDF782F80020F8BD79422846FDF7F4F860
:10550000B0F1FF3F10D0A26848F2C833C2F20003E6
:10551000F61B46F00106284656601A68D71B1F6026
:10552000FDF76AF80120F8BD00212846FDF7DCF8F8
:10553000A368C21A0F2ADADD48F2B03448F2C83143
:10554000C2F20004C2F2000142F001022468001B12
:1055500008605A60CBE700BF2DE9F04105460C46D4
:10556000002900F08880FDF745F8A4F1080247F60D
:10557000A8705668C2F2000026F00103D0F808C0F7
:10558000D1188C454F6827F0030700F0958016F07E
:1055900001064F605FD00026CC19646814F0010F3B
:1055A00006D1DB19002E7AD08C68C9688C60E16066
:1055B00043F00101D3505160002E47D1B3F5007F75
:1055C0005BD3590A04299EBF4FEA931C0CF1380C97
:1055D0004FEACC0428D914299CBF01F15B0C4FEA97
:1055E000CC0421D954299EBF4FEA133C0CF16E0C18
:1055F0004FEACC0418D9B1F5AA7F9EBF4FEAD33C3D
:105600000CF1770C4FEACC040ED940F2545C6145A2
:1056100095BF4FEA934C4FF47C740CF17C0C4FF027
:105620007E0C98BF4FEACC040419A168A14203D1B3
:1056300064E089688C4204D0486820F0030083420B
:10564000F7D3CB68D3609160CA609A602846BDE802
:10565000F041FCF7D1BF54F8084C00F1080C121BC4
:105660001B199468644547D0D2F80CC0CCF80840A8
:10567000C4F80CC090E7BDE8F081DB084FF0010CE6
:10568000466800EBC3019B100CFA03F3D1608C68F1
:1056900046EA030343609460E2608A60D6E78C6860
:1056A0001C4FBC4281D1D35043F00103E260A260A1
:1056B00053609460D460C9E7FB1816F0010F07D15E
:1056C00054F8081C521A5B18D4689168A160CC6029
:1056D00048F2B4318260C2F2000143F00100506030
:1056E0000A689342B2D348F2C4332846C2F2000398
:1056F0001968FFF7DDFEA9E701264DE7012644689A
:105700004FEAAC0C0B4606FA0CFC44EA0C0444606D
:1057100098E700BFB07F00202DE9F04F936885B077
:1057200090460C460390002B64D088891FFA80FABB
:105730001AF0080F00F0A0800B69002B00F09C808D
:105740001AF0020BD8F800501CBF4FF0000A574661
:1057500036D11AF0010A1DBFDC46D9465F465646CF
:1057600052D126B380B2A76810F4007F00F08F807A
:10577000BE42BB4680F0A78020683746B3465A46F3
:10578000514600F05DFBA2682368B146D71BA760B5
:1057900037465B442360D8F80830C9EB0606CA4494
:1057A000DF1BC8F808702FB3A089002EDAD1D5F816
:1057B00000A06E680835D4E7D5F800A06F680835FA
:1057C000B7F5806F34BF3B464FF480635246039871
:1057D000002FF1D0A66A216AB04700288244C0EBAE
:1057E000070740F3EC80D8F80830181AC8F808000A
:1057F0000028E5D1002005B0BDE8F08FD5F8009075
:105800004FF0000C6F680835002FF7D0BCF1000F87
:1058100000F0B5806369BB4534BFDA46BA46A66876
:10582000206822699E19904294BF00220122B2454D
:10583000D4BF002202F00102002A40F0AE809A4557
:10584000C0F28280A66A4A46CDF804C00398216A55
:10585000B047DDF804C0061E40F3B180BBEB060B79
:1058600000F08680D8F80830B144BF1B9E1BC8F8F2
:105870000860002EC8D1BDE703982146FEF718FC4A
:10588000002840F0D480A0891FFA80FA58E72068E9
:10589000B9462369984294BF00230123B7422CBF25
:1058A000002303F00103002B40F09D8063699E42BA
:1058B000C0F08C80A76A52460398216AB847071E39
:1058C0007DDDB94667E710F4906F08BF20683FF4AC
:1058D00056AF62692169236802EB42095B1A09EB42
:1058E000D97903F1010CB4444FEA6909E1454A460C
:1058F0003CBFE1464A4610F4806F00F083801146B9
:1059000003980293FCF7A4FB029B002800F0998007
:105910001A4621690293019000F0CAF9A289029BFC
:10592000DDF804C022F4906242F08002A281C3EB51
:1059300009020CEB03003746B346A260C4F810C05E
:105940002060C4F814901AE7524649465646CDF8EE
:1059500004C000F075FAA2682368BBEB060BCAEB23
:105960000202DDF804C05344A26023607FF47AAFE2
:1059700003982146FFF7FCFB08BBDC4672E748466C
:105980000A213A4600F05AF900284BD000F1010BE9
:105990004FF0010CC9EB0B0B3CE749463246CDF802
:1059A00004C000F04DFA2368214603989B19236038
:1059B000FFF7DEFBDDF804C000283FF44FAFA389FA
:1059C0004FF0FF3043F04003A38114E732465146C5
:1059D00000F036FAA26823683746921BB1469B193D
:1059E000A2602360D7E651463A4600F029FA2368C0
:1059F00003982146DB192360FFF7BAFB00283FF428
:105A0000CAAEDCE70398029300F08CFF029B844649
:105A100000288CD121690398FFF79EFD03990C2380
:105A20000B60CCE707F1010B4FF0010CF2E6039994
:105A30000922A3894FF0FF3043F040030A60A3819D
:105A4000D9E6039A0C231360B9E700BF2DE9F845A6
:105A500007468A46FFF748FC17F1D80608BFB0464C
:105A600018D04FF000087568B468013D0FD4B4F940
:105A70000C304BB1B4F90E3021463846B3F1FF3F3C
:105A800002D0D04748EA00086834013DEFD53668B7
:105A9000002EE8D1FFF72AFC4046BDE8F88500BF9C
:105AA0002DE9F04106468846FFF71EFCD83608BFB0
:105AB000374615D000277568B468013D0DD4B4F998
:105AC0000C303BB1B4F90E302046B3F1FF3F01D0AA
:105AD000C04707436834013DF1D53668002EEAD14E
